:020000020000FC
:040000000C942C022E
:080028000C943C000C946700ED
:040038000C947A00AA
:040048000C948B0089
:1000680032303233303832345F30316230310A0066
:1000780020903F002F920F931F930091810006FD5F
:1000880012C000640093810000916F000F7D0093FF
:100098006F000091860010918700109396010093DD
:1000A8009501F29A0BC00F7B0093810000918600A6
:1000B8001091870000939301109394011F910F9161
:1000C8002F902FBE18950F932B9800911600009330
:1000D80016000091810000640093810000916F0078
:1000E80000620D7F00936F000F9118952F922FB625
:1000F8000F93009106010A950093060121F405E08B
:1001080000930601F79A0F912FBE2F9018952F9202
:100118002FB60F931F93AF93BF93B1E0A9E000915F
:1001280049011127A00FB11F1091C6001C93039518
:100138000F7300934901BF91AF911F910F912FBE8B
:100148002F90189508E204B90BB300270BBB01E008
:1001580000936B00009168000160009368000895A7
:1001680002E004BDAA9A0CE707BD02E000936E0006
:1001780004E005BD089500E000938000B29A0AECFF
:100188000093810008950EEF0093C00000E10093F2
:10019800C40000E00093C50006E00093C20008E92F
:1001A8000093C10008950091040110910501209168
:1001B800020130910301202321F4312311F42D98F9
:1001C80008952D9A88940795179515FF02C0112751
:1001D80000E80093040110930501089500910701B8
:1001E8000A950093070109F00AE00093070106E168
:1001F8000D7F00931600009184001091850024E182
:10020800020F08F41395009389001093880002E008
:1002180000936F002B9A0E94D70000914B01002396
:1002280009F4089500914D010A9500934D0109F0D4
:100238000895002700934B010895109149010091FA
:100248004A01B1E0A9E0A00F08F4BF5F011302C0A2
:10025800000008953C9120914B012630F1F12530A2
:1002680061F1243029F12330F9F02230C9F021302E
:1002780099F0203051F02FEF239520934B010F7305
:100288000F5F0F7300934A01DCCF353509F0F7CFC4
:1002980033E030934D01F0CF3E3471F30150EBCF92
:1002A800353451F30150E7CF323531F30150E3CF04
:1002B80030934C0130934F01DFCF3A3311F00150A6
:1002C800DACF36E320904F01232620924F01039581
:1002D8000F7300934E010A95CFCF40914C014A9578
:1002E80040934C01403031F020904F01232620925A
:1002F8004F01C5CF20904F01F198321509F4F19ABA
:10030800BACF06E3202E109190011A5F1F73009157
:100318004E010E94ED01303F09F425C0313F09F438
:100328002CC0303D09F404C0313D09F40FC00895D4
:100338000E94F6010E94ED01313011F4F39A01C0D8
:10034800F39833E023263093920125C00E94F601EA
:10035800309199010E94F6010E94F60134E02326AB
:100368003093920118C00E94F6013DE00E94F60108
:1003780033E02326309392010EC00E94F601E8E68E
:10038800F0E00EE035910E94F6010A95D9F73FE0BA
:10039800232630939201322D0E94F601109390018A
:1003A800009192010A5F101B1F7335E50E94F60148
:1003B8003EE40E94F60135E40E94F60132E50E940F
:1003C800F601309192010E94F6013AE30E94F6018B
:1003D8000895B1E0A9E0A00F08F4BF5F3C91039530
:1003E8000F7308952326D1E0C0E5C10F08F4DF5F3D
:1003F800388313951F7308950F931F93AF93BF937B
:1004080000919001B1E0A0E5A00F08F4BF5F03954B
:100418000F73159110301C93A9F700939001BF91A9
:10042800AF911F910F9108950091C00005FF0895A5
:100438000F7BB1E0A0E500919101A00F08F4BF5F28
:1004480003950F73009391010C910093C6000895D2
:100458000FEF0DBF08E00EBFF8940E94A6000E949F
:10046800B4000E94BF000E94C70000E80093040186
:100478000093020100E00093980100939701009314
:10048800050100930301009300010093010100930B
:100498004B0100934A010093490100939101009395
:1004A800900105E0009306010AE00093070103B1FB
:1004B800F3987894F79B07C0F798F3990E94F20095
:1004C800F2990E947F02F69B00C0F19B03C0F1984D
:1004D8000E9485010091490110914A0101130E946F
:1004E80021010000009190011091910101130E94D7
:1004F80018020000DFCFF2984091930150919501C6
:100508006091940170919601541B760B7093980139
:0605180050939701D8CFBB
:00000001FF
